:020000040800F2
:100000000002002091010008810E00089301000801
:100010009301000893010008930100089301000870
:100020009301000893010008930100089301000860
:100030009301000893010008930100089301000850
:100040009301000893010008930100089301000840
:100050009301000893010008930100089301000830
:100060009301000893010008930100089301000820
:100070009301000893010008930100089301000810
:10008000A1100008930100089301000893010008E3
:1000900093010008930100089301000893010008F0
:1000A0009301000893010008930100080113000860
:1000B0007111000811130008930100089301000852
:1000C00072B6244880F30888234880F30988022008
:1000D00080F31488BFF36F8F01F062F900F020FF06
:1000E0001E481F491B4A914202DA08600431FAE7B0
:1000F0001C49194A914202DA08600431FAE71A49A8
:100100001A4A1B4B9A4204DA086810600431043220
:10011000F8E700201749184A914202DA08600431D2
:10012000FAE701F0FDF801F033F9144C144DAC423C
:1001300003DA216888470434F9E700F0B9FC114C70
:10014000114DAC4203DA216888470434F9E70F49BE
:1001500008470000000200200004002055555555B6
:1001600000000020000200209C1400080004002071
:10017000000400200004002088070020C0000008C0
:10018000C0000008C0000008C0000008811300087B
:1001900096E700F000F8FEE7F0B544464D465646B7
:1001A0005F46F0B46B46CB60C3689D46F0BCA0468A
:1001B000A946B246BB46F0BD62B6281CA047002047
:1001C00000F066FEFEE700F08BFE024A024B136071
:1001D000FEE7C04604ED00E0000000800022430876
:1001E0008B4274D303098B425FD3030A8B4244D3FF
:1001F000030B8B4228D3030C8B420DD3FF22090241
:1002000012BA030C8B4202D31212090265D0030BFF
:100210008B4219D300E0090AC30B8B4201D3CB03F5
:10022000C01A5241830B8B4201D38B03C01A524137
:10023000430B8B4201D34B03C01A5241030B8B4239
:1002400001D30B03C01A5241C30A8B4201D3CB0224
:10025000C01A5241830A8B4201D38B02C01A524109
:10026000430A8B4201D34B02C01A5241030A8B420C
:1002700001D30B02C01A5241CDD2C3098B4201D324
:10028000CB01C01A524183098B4201D38B01C01AA2
:10029000524143098B4201D34B01C01A5241030919
:1002A0008B4201D30B01C01A5241C3088B4201D3C8
:1002B000CB00C01A524183088B4201D38B00C01A75
:1002C000524143088B4201D34B00C01A5241411A9C
:1002D00000D20146524110467047FFE701B50020A9
:1002E00000F006F802BDC0460029F7D076E7704757
:1002F0007047C046F0B5C64600B50F2A43D90B007B
:10030000032603431E400C000300002E40D11500BD
:10031000103D2D09AC462D01A846804400E03B006D
:10032000676825685F60E7681D60DF601F00A5687B
:1003300010379D6010344345F1D165460F230C24DE
:1003400001352D01491913404519144223D08C5908
:10035000AC5104369C1B032CF9D80324043B9B08A6
:1003600001339B002240ED18C918561E002A07D001
:10037000002300E02300CA5C5C1CEA549E42F9D1D1
:1003800004BC9046F0BD0500561E002AF0D1F7E7E8
:10039000561E0500ECE71A00F6E7C0460000000014
:1003A00030B572B6074C65682B1A4842184023686E
:1003B000821A9A4204D3954202D3626062B630BD7B
:1003C0000020FBE7F805002000000000000000000E
:1003D000C021024A13680B43136070470044004079
:1003E00072B6EFF30983203B83F30988802252041D
:1003F000DA61064A1168926989689268914202D965
:10040000034A9A617047034AFBE7C0466004002034
:10041000C7010008CA010008000000000000000039
:10042000074A10B55468231A484218401368984286
:1004300003D3844201D3506010BD0020FCE7C046C6
:10044000F80500200000000000000000000000008F
:1004500072B62023C35C072B0BD8114A9B00D358DC
:100460009F46426A93680133936042680368136051
:100470005A60012300225B4243622133C2548268E6
:10048000084B1B6899689142FBD25A68036042602E
:100490001060586062B670470022436A1A60E8E74D
:1004A000A413000860040020000000000000000009
:1004B00020230022C2548268054B1B689968914230
:1004C000FBD25A6803604260106058607047C046B3
:1004D0006004002000000000000000000000000098
:1004E000F0B5C646184E05007468043600B5B4422F
:1004F00022D000232027984604E00B2A1FD024682E
:10050000B44219D0E3682B43E360002D02D0236985
:100510002B42F4D06068A368426B13434363C25D0F
:100520000A2AEAD1426A1A42E9D043464362FFF7F7
:10053000BFFF2468B442E5D104BC9046F0BD426AD6
:1005400013409A42DBD1F0E70004002000000000D5
:10055000FEE7C046000000000000000000000000B0
:100560000D4A70B594460322FF25C0260240D200F2
:1005700095408901914083089B006344B6009C59D3
:100580006246AC430C439C510123C0218340490087
:100590005350136070BDC04600E100E00000000051
:1005A0000020704700000000000000000000000074
:1005B00070B50025124B8268996945628C68A24229
:1005C0000BD8202145541B6899688A42FBD95A6888
:1005D000036042601060586070BD20228D541A0084
:1005E00012689568AC42FBD354680A604C60216085
:1005F0005160012298612023C254FFF7CDFDEBE743
:100600006004002000000000000000000000000066
:100610002022074B10B599698854186804686360F4
:100620001C60986101238354FFF7B6FD10BDC046DE
:100630006004002000000000000000000000000036
:10064000F0B5C64600B586B04B1C52D04B4C01AD40
:10065000A3692B614A4BEB604A4B5A6A92B202295A
:1006600038D32600E3691C36B34267D0268D921B2F
:1006700092B289188A422FD99A681B68891A9A6897
:100680008A42FAD35A6801936A6015605D60A96076
:100690009A68511A996001235B426362FFF7B8FFC1
:1006A000049B002B10D0E369AB4226D06A68019B03
:1006B0001360019B5A6022001C32934204D0996857
:1006C000AA688C4662449A60A369586A06B004BC62
:1006D0009046F0BD0221C4E79A689142D0D28027AB
:1006E00088467F02B9423CD2264F4644B6B27E636A
:1006F000C6E7FFF78DFF214CE6E7230000212A68BB
:100700001C33E2615360E9609A4233D09168AB6870
:100710008C46634493601B4A218D526A521A92B2EE
:100720009342D1D9981A012822D9802252029342A9
:100730001CD2144ACB189BB25363C5E701936B607C
:1007400080232285E5612562A9605B0299420BD274
:10075000511800220B4B89B259631A610232DA60D8
:100760009CE7094FB846BFE70749F1E7064BE0E7CA
:10077000931CDEE7034BD960A6E7C0466004002067
:100780005104000800040040FFFF000000000000CA
:1007900010B572B6FA2108204900FFF751FF62B682
:1007A00010BDC04600000000000000000000000076
:1007B00070B540264025064B064A9B69064C9A6157
:1007C0006583FFF7E5FF2683FFF7E2FFF8E7C04602
:1007D00060040020C413000800040048000000006A
:1007E00010B500290AD0074B42689B6918605A600F
:1007F000136043600420FFF723FF10BD0120404237
:10080000FBE7C0466004002000000000000000007C
:1008100070B504000E00150072B605E02900200036
:10082000FFF7DEFF002817DBA368002BF6D0A368D4
:10083000013BA36063695A1C62611E70636922698F
:10084000934201D3E3686361E369002B01D0200088
:10085000984762B6002070BD62B6FCE70000000059
:1008600010B53030FFF7D4FF10BDC04600000000C7
:10087000012210B530305242FFF7CAFF10BDC0460A
:1008800070B505000C0072B605E021002800FFF7E6
:10089000A7FF002816DBAB68002BF6D0AB68AA696F
:1008A000013BAB60531CAB6114782A69934201D3BE
:1008B000EB68AB61EB69002B01D02800984762B66A
:1008C000200070BD62B6FCE70000000000000000E0
:1008D00010B50C30FFF7D4FF10BDC046000000007B
:1008E000012110B50C304942FFF7CAFF10BDC046C8
:1008F000F0B5DE464E4645465746E0B59B46C369D1
:1009000083B0040088469946019272B6171E27D01C
:10091000A3683D009F4200D9A568606923691E1A3B
:10092000AE423AD825D232004146FFF7E3FC31000F
:10093000AB1B9A461A00E0684144FFF7DBFCE36812
:1009400053446361A3685B1BA3604B46002B01D03B
:100950002000C84762B67F1BA84472B6002FD7D1CB
:10096000019862B603B03CBC90469946A246AB469D
:10097000F0BD2A004146FFF7BDFCE3686361A36850
:100980005B1BA360002DE0D159462000FFF728FF34
:100990000028BDD0019BD81BE3E72A004146FFF7A2
:1009A000A9FC63695B196361E9E7C04600000000C8
:1009B00010B53030FFF79CFF10BDC04600000000AE
:1009C000012310B530305B42FFF792FF10BDC046E7
:1009D000F0B5DE464E4645465746E0B59B46C369F0
:1009E00083B0040088469946019272B6171E27D03C
:1009F000A3683D009F4200D9A568A16923695E1ADA
:100A0000AE423AD825D232004046FFF773FC3000A0
:100A1000AB1B9A461A00E1684044FFF76BFCE368A1
:100A20005344A361A3685B1BA3604B46002B01D01A
:100A30002000C84762B67F1BA84472B6002FD7D1EA
:100A4000019862B603B03CBC90469946A246AB46BC
:100A5000F0BD2A004046FFF74DFCE368A361A368A0
:100A60005B1BA360002DE0D159462000FFF7B8FEC4
:100A70000028BDD0019BD81BE3E72A004046FFF7C2
:100A800039FCA3695B19A361E9E7C04600000000D7
:100A900010B50C30FFF79CFF10BDC04600000000F1
:100AA000012310B50C305B42FFF792FF10BDC0462A
:100AB000F8B5D04BDE46996A57464E464546CE4A73
:100AC000E0B50A43BC219A629A6AC9030A409A6255
:100AD0009A6A1A690122002152421A611A6919613F
:100AE0001A69D868C54A02438020DA60DA68C00310
:100AF0000240DA60DA688022D86952050243DA617E
:100B0000DA698022BE485200046822430260C02095
:100B10001A6A800002400138FF38824203D08022E6
:100B200052021A6219628022B24B1202196A1142F1
:100B300007D18021186A890001431962196A0A43A2
:100B40001A6203210520FFF70BFD03210620FFF7A2
:100B500007FD03210720FFF703FD03211B20FFF7FB
:100B6000FFFC03211C20FFF7FBFC03211D20FFF7E6
:100B7000F7FCA44DA44A2B0004C36B6001232B7225
:100B800098462B0002220C33EB602B619F4B914661
:100B9000AB616B622B621033EB612B0030330026AC
:100BA0002B636B63102349466E61AB63984B914F87
:100BB000EB63AB646B6410332B64964BAE62EB64F7
:100BC000954BED626B65954B2D65AB65FB69102010
:100BD0001343934AFB61FB6993680B439360914B0A
:100BE000914A9A62914ADA6242469E615E63DE6091
:100BF0005E605A611A60FFF7B3FC8D4C8D4A23008A
:100C00001C33E361236201235B4263628A4B04214C
:100C10001A608A4A24605A60894B8A4A5E601A6068
:100C20001A000C329E601A615E61DA60864B646065
:100C30001A00180010321A61243014225862180069
:100C40009A61824A28309E605E61D9611A62A6600C
:100C500026851B605B6098629A631A003C32DA63F7
:100C60001A0040321A641A001C2044321863596377
:100C70005A64DE62764B2100A36423003033236183
:100C80006361A36101235831A16521009B46404661
:100C90005C3150238022E16521665946E0526D485F
:100CA0000233E154A263E2666666036A6A49A66695
:100CB0000B4024646464E664036262B672B66C211D
:100CC0008C46664BAC209E50654A9C4461469246D9
:100CD0001B50103819508C225146995041460C3205
:100CE0009950343299504946043A9E50043A9E50E5
:100CF000143A99525946023299545A485A490A3A72
:100D00009950D867A4211800083A9C506269903025
:100D10005A5019001061B822B83199501A00BC21FC
:100D2000BC325A5004315A506061FFF741FC62B640
:100D300072B62B7A012B05D18023FA699B021343EB
:100D4000FB61FB699621A86D0902FFF747FA2E2384
:100D50006E6D00220121F0605C20FF337260B16093
:100D600033602F3BFF3B33622B545A38287262B6F4
:100D700072B63E4B8E251E006D005B51DC36103D79
:100D80005E513B4E203D5E51564604355A510C355E
:100D90005E5184267C3D76009D5134369D51B83598
:100DA0005A51043D5A512132FF329852023299541D
:100DB00030490A3A99508A21083A9C506269581C75
:100DC00049005A50FF301900106194222931FF3137
:100DD000520099501A0096212D32FF3249005A5084
:100DE00004315A506061FFF7E3FB62B6FFF7D0FCB5
:100DF000FCE7C04600100240FFFFA1FFFFFFBFFF5E
:100E00000070004000040020741400081C0600203C
:100E10002C060020D103000800440040006CDC02D6
:100E200000580140000400407FBB0000FFFF0000AD
:100E30006004002088070020F80500200020002022
:100E400000060020A1030008D404002021040008AB
:100E5000DC13000800ED00E0FFFF00FF200500208C
:100E6000B901000851050008CC1300084006002015
:100E7000B1070008D41300080000000000000000C3
:100E8000EFF30983203383F3098862B67047C046C5
:100E900070B572B60F4B9C6925006062A06A283558
:100EA000A84206D00368A362FFF702FBA06AA8422B
:100EB000F8D12223E35C002B07D12133E35C9B07AD
:100EC00003D16269236913615A610F20FFF7A0FB08
:100ED00070BDC0466004002000000000000000005B
:100EE0000D4A70B510689169036820245A60136038
:100EF00090610122002502558A680D5500E01B68AB
:100F00009C68A242FBD35A680B604A60116059602A
:100F1000FFF742F970BDC0466004002000000000E9
:100F2000BC234D4ADB03916A70B519439162916A03
:100F30004A48012401409162916A516948480B4333
:100F40005361902153690023C9054B60886045486F
:100F50008426C8604448454D4861882040010862A5
:100F600043484B62086043494348644276014B6002
:100F70008C60CD6048610B624B620E603F49404E11
:100F80004B608C60CE6048610B624B620B603D49E8
:100F90004B608C60CD603C4C48610B624B620B60D7
:100FA0003A494B608B60CC6048610B624B620B60CE
:100FB000012113680B431360022311680B42FCD01C
:100FC000032153688B4353600C22234B1000596854
:100FD00008400A42FAD1F92219680A401A608022B0
:100FE0005860196852020A431A6080221A4B920212
:100FF00019681142FCD001215A6A0A435A6202223E
:10100000154B596A0A42FCD0A02100228903DA62FA
:1010100059601A638022196852040A431A608023B7
:101020000D4A9B0411681942FCD01122184B1A601A
:10103000103A19680A42FCD00221074B5A680A4349
:101040005A600A315A680A40082AFBD101219A697C
:101050000A439A619B6970BD00100240FFFFA1FF27
:101060005FF7FFFF05515565DFFF000055555555EA
:10107000A004002800040048FFFF0000000800480A
:1010800055555501000C0048505555550014004861
:1010900000200240000000000000000000000000EE
:1010A000F8B52E4DCE462B69EA6847461A40FF2315
:1010B0001340DB4380B5F0462B61930708D44346C9
:1010C0000F3301D0FFF78CF90CBC90469946F8BD60
:1010D00072B6234E6A6AF369318D92B2541A9868D7
:1010E000A4B2A04221D837001C370022914608E064
:1010F00062B61869884772B6F369986884420DD35E
:10110000318D0918241A48461A6831855760D96804
:10111000F261D860BA42EBD1E860E9E76A6A318DE2
:1011200092B2541AA4B28442DFD231001C318B42F5
:101130000DD0996832850C1B9C6080235B029C4219
:1011400009D2022C05D3054B121992B25A6362B62A
:10115000B5E70224F7E7034CF5E7C046000400407A
:1011600060040020FFFF00000000000000000000FD
:10117000F8B54E46DE46574645465F4CE0B5666DCF
:10118000F1463768F56935622B0700D092E0AB066F
:101190003ED55C239A46503B9846A0441EE0236A05
:1011A000626A934229D06269013262615A1C2262EA
:1011B0001D70236AE269934201D3A3692362E06848
:1011C000404507D042460368E3605A60002343620B
:1011D000FFF76EF962B6F569AB0619D572B65346DC
:1011E000B58CE35C1D406369002BD8D10420FFF768
:1011F00077F9236A626A9342D5D16269002AD2D014
:101200008020C000FFF76CF962B6F569AB06E5D443
:1012100080233B4236D02B4234D0302398460023E3
:101220009B4680339A46A0441CE0A26B0132A26325
:101230005A1CA2641D78236C9A4201D3E36BA36409
:10124000206B404507D04246036823635A605B46E3
:101250004362FFF72DF9ADB2358562B65346F569A5
:101260002B420FD072B6A36C626C9A42DDD1A26B96
:10127000002ADAD00820FFF733F980233A009A4396
:10128000326062B6402398463B420AD14B460F3348
:1012900001D0FFF7A5F83CBC90469946A246AB4664
:1012A000F8BD2B42F2D072B6636CA26C934219D097
:1012B00062B6EBE70823180028402B4200D08020BC
:1012C000EB0701D520231843AB0701D54023184372
:1012D0006B0702D580235B00184372B6FFF700F955
:1012E00062B654E7A36B002BE2D01020FFF7F8F8AA
:1012F00043469F433760DBE7000400200000000006
:10130000734610B50F3301D0FFF76AF810BDC04621
:1013100010B5FFF7F5FF10BD000000000000000051
:1013200080229446F0B50025104E114C1149124B05
:101330001248B44499420DD91A0080C880C2914223
:10134000FBD80139C91A8908013189005B189C4210
:1013500002D920C39C42FCD81036664504D03068C0
:101360007368B168F468E5E7F0BDC046F41300089F
:101370008807002088070020880700209C140008A8
:10138000FEE7C04600000000000000000000000072
:101390007047C04600000000000000000000000090
:0413A0007047C0468C
:1013A40094040008720400087204000898040008F9
:1013B4006A04000862040008720400086A04000851
:1013C400626C696E6B65720069646C650000000094
:1013D4006E6F6E616D6500006D61696E001641305F
:1013E400040244080C1014181C20212200000000E0
:1013F4009C14000888070020880700208807002024
:101404009C14000800000000000000000000000020
:101414009C14000800000000000000000000000010
:101424009C14000800000000000000000000000000
:101434009C140008000000000000000000000000F0
:101444009C140008000000000000000000000000E0
:101454009C140008000000000000000000000000D0
:101464009C140008000000000000000000000000C0
:1014740000000000C1090008A10A00087108000862
:10148400E108000861080008D1080008B109000853
:08149400910A0008A1050008FF
:04000005080001915D
:00000001FF
