:020000040800F2
:100000000002002091010008B10C000893010008D3
:100010009301000893010008930100089301000870
:100020009301000893010008930100089301000860
:100030009301000893010008930100089301000850
:100040009301000893010008930100089301000840
:100050009301000893010008930100089301000830
:100060009301000893010008930100089301000820
:100070009301000893010008930100089301000810
:10008000D10E0008930100089301000893010008B5
:1000900093010008930100089301000893010008F0
:1000A0009301000893010008930100083111000832
:1000B000A10F0008411100089301000893010008F6
:1000C00072B6244880F30888234880F30988022008
:1000D00080F31488BFF36F8F01F07AF800F038FED8
:1000E0001E481F491B4A914202DA08600431FAE7B0
:1000F0001C49194A914202DA08600431FAE71A49A8
:100100001A4A1B4B9A4204DA086810600431043220
:10011000F8E700201749184A914202DA08600431D2
:10012000FAE701F015F801F04BF8144C144DAC420D
:1001300003DA216888470434F9E700F0D9FB114C51
:10014000114DAC4203DA216888470434F9E70F49BE
:1001500008470000000200200004002055555555B6
:100160000000002000020020BC1200080004002053
:1001700000040020000400203C060020C00000080D
:10018000C0000008C0000008C0000008B11100084D
:1001900096E700F000F8FEE7F0B544464D465646B7
:1001A0005F46F0B46B46CB60C3689D46F0BCA0468A
:1001B000A946B246BB46F0BD62B6281CA047002047
:1001C00000F07EFDFEE700F0A3FD024A024B136043
:1001D000FEE7C04604ED00E000000080F0B5C64632
:1001E00000B50F2A43D90B00032603431E400C0021
:1001F0000300002E40D11500103D2D09AC462D0105
:10020000A846804400E03B00676825685F60E768B7
:100210001D60DF601F00A56810379D6010344345E6
:10022000F1D165460F230C2401352D0149191340E6
:100230004519144223D08C59AC5104369C1B032C15
:10024000F9D80324043B9B0801339B002240ED189E
:10025000C918561E002A07D0002300E02300CA5CFC
:100260005C1CEA549E42F9D104BC9046F0BD0500E6
:10027000561E002AF0D1F7E7561E0500ECE71A00DB
:10028000F6E7C0460000000000000000000000008B
:1002900030B572B6074C65682B1A4842184023687F
:1002A000821A9A4204D3954202D3626062B630BD8C
:1002B0000020FBE7F805002000000000000000001F
:1002C000C021024A13680B4313607047004400408A
:1002D00072B6EFF30983203B83F30988802252042E
:1002E000DA61064A1168926989689268914202D976
:1002F000034A9A617047034AFBE7C0466004002046
:10030000C7010008CA01000800000000000000004A
:10031000074A10B55468231A484218401368984297
:1003200003D3844201D3506010BD0020FCE7C046D7
:10033000F8050020000000000000000000000000A0
:1003400072B62023C35C072B0BD8114A9B00D358ED
:100350009F46426A93680133936042680368136062
:100360005A60012300225B4243622133C2548268F7
:10037000084B1B6899689142FBD25A68036042603F
:100380001060586062B670470022436A1A60E8E75E
:10039000D4110008600400200000000000000000EC
:1003A00020230022C2548268054B1B689968914241
:1003B000FBD25A6803604260106058607047C046C4
:1003C00060040020000000000000000000000000A9
:1003D000F0B5C646184E05007468043600B5B44240
:1003E00022D000232027984604E00B2A1FD024683F
:1003F000B44219D0E3682B43E360002D02D0236997
:100400002B42F4D06068A368426B13434363C25D20
:100410000A2AEAD1426A1A42E9D043464362FFF708
:10042000BFFF2468B442E5D104BC9046F0BD426AE7
:1004300013409A42DBD1F0E70004002000000000E6
:10044000FEE7C046000000000000000000000000C1
:100450000D4A70B594460322FF25C0260240D20003
:1004600095408901914083089B006344B6009C59E4
:100470006246AC430C439C510123C0218340490098
:100480005350136070BDC04600E100E00000000062
:100490000020704700000000000000000000000085
:1004A0002022074B10B59969885418680468636066
:1004B0001C60986101238354FFF76EFE10BDC04697
:1004C00060040020000000000000000000000000A8
:1004D000F0B5C64600B586B04B1C52D04B4C01ADB2
:1004E000A3692B614A4BEB604A4B5A6A92B20229CC
:1004F00038D32600E3691C36B34267D0268D921BA1
:1005000092B289188A422FD99A681B68891A9A6808
:100510008A42FAD35A6801936A6015605D60A960E7
:100520009A68511A996001235B426362FFF7B8FF32
:10053000049B002B10D0E369AB4226D06A68019B74
:100540001360019B5A6022001C32934204D09968C8
:10055000AA688C4662449A60A369586A06B004BCD3
:100560009046F0BD0221C4E79A689142D0D280271C
:1005700088467F02B9423CD2264F4644B6B27E63DB
:10058000C6E7FFF78DFF214CE6E7230000212A682C
:100590001C33E2615360E9609A4233D09168AB68E2
:1005A0008C46634493601B4A218D526A521A92B260
:1005B0009342D1D9981A012822D98022520293421B
:1005C0001CD2144ACB189BB25363C5E701936B60EE
:1005D00080232285E5612562A9605B0299420BD2E6
:1005E000511800220B4B89B259631A610232DA604A
:1005F0009CE7094FB846BFE70749F1E7064BE0E73C
:10060000931CDEE7034BD960A6E7C04660040020D8
:100610004103000800040040FFFF0000000000004C
:1006200010B500290AD0074B42689B6918605A60D0
:10063000136043600420FFF74BFF10BD01204042D0
:10064000FBE7C0466004002000000000000000003E
:1006500070B504000E00150072B605E029002000F8
:10066000FFF7DEFF002817DBA368002BF6D0A36896
:10067000013BA36063695A1C62611E706369226951
:10068000934201D3E3686361E369002B01D020004A
:10069000984762B6002070BD62B6FCE7000000001B
:1006A00010B53030FFF7D4FF10BDC0460000000089
:1006B000012210B530305242FFF7CAFF10BDC046CC
:1006C00070B505000C0072B605E021002800FFF7A8
:1006D000A7FF002816DBAB68002BF6D0AB68AA6931
:1006E000013BAB60531CAB6114782A69934201D380
:1006F000EB68AB61EB69002B01D02800984762B62C
:10070000200070BD62B6FCE70000000000000000A1
:1007100010B50C30FFF7D4FF10BDC046000000003C
:10072000012110B50C304942FFF7CAFF10BDC04689
:10073000F0B5DE464E4645465746E0B59B46C36992
:1007400083B0040088469946019272B6171E27D0DE
:10075000A3683D009F4200D9A568606923691E1AFD
:10076000AE423AD825D232004146FFF737FD31007C
:10077000AB1B9A461A00E0684144FFF72FFDE3687F
:1007800053446361A3685B1BA3604B46002B01D0FD
:100790002000C84762B67F1BA84472B6002FD7D18D
:1007A000019862B603B03CBC90469946A246AB465F
:1007B000F0BD2A004146FFF711FDE3686361A368BD
:1007C0005B1BA360002DE0D159462000FFF728FFF6
:1007D0000028BDD0019BD81BE3E72A004146FFF764
:1007E000FDFC63695B196361E9E7C0460000000036
:1007F00010B53030FFF79CFF10BDC0460000000070
:10080000012310B530305B42FFF792FF10BDC046A8
:10081000F0B5DE464E4645465746E0B59B46C369B1
:1008200083B0040088469946019272B6171E27D0FD
:10083000A3683D009F4200D9A568A16923695E1A9B
:10084000AE423AD825D232004046FFF7C7FC30000E
:10085000AB1B9A461A00E1684044FFF7BFFCE3680F
:100860005344A361A3685B1BA3604B46002B01D0DC
:100870002000C84762B67F1BA84472B6002FD7D1AC
:10088000019862B603B03CBC90469946A246AB467E
:10089000F0BD2A004046FFF7A1FCE368A361A3680E
:1008A0005B1BA360002DE0D159462000FFF7B8FE86
:1008B0000028BDD0019BD81BE3E72A004046FFF784
:1008C0008DFCA3695B19A361E9E7C0460000000045
:1008D00010B50C30FFF79CFF10BDC04600000000B3
:1008E000012310B50C305B42FFF792FF10BDC046EC
:1008F000CE4BF0B5996AD6464F464646CC4AC0B56F
:100900000A43BC219A629A6AC9030A409A629A6AA7
:100910001A690122002152421A611A6919611A6981
:10092000D868C44A02438020DA60DA68C003024013
:10093000DA60DA688022D86952050243DA61DA693E
:100940008022BD485200046822430260C0201A6A17
:10095000800002400138FF38824203D080225202D8
:100960001A6219628022B14B1202196A114207D130
:100970008021186A890001431962196A0A431A62C0
:1009800003210520FFF764FD03210620FFF760FD2A
:1009900003210720FFF75CFD03211B20FFF758FD13
:1009A00003211C20FFF754FD03211D20FFF750FDFC
:1009B000A24BA3491A0002C25A601A000C32DA6034
:1009C0001A61A04A00249A615A621A621032DA61EE
:1009D0001A0030321A635A631022012502265C6124
:1009E0009A63994A1D72DA639A645A6410321A64DF
:1009F000964A9C62DA64964ADB625A65954A1B65A0
:100A00009A658A4B0221DA6910203243DA61924AF0
:100A1000DB699368042733439360904B904A9A6252
:100A2000904ADA629C615C63DC605C605D611D60C1
:100A3000FFF70EFD8C4B24201A001C32DA611A627B
:100A4000012252425A62002288499146884A8446CD
:100A5000116088491B605160874A88495460116061
:100A600011000C31946011615461D160844A5B6063
:100A70009444604650622820110084461031116170
:100A800014219444604691617E4994605461D76119
:100A900011629C601C85126052609062916311002B
:100AA0003C31D16311004031116411001C204431EC
:100AB000106357635164D462734A80219A641A00A8
:100AC00030321A615A619A61012292465022504690
:100AD0009D52023298541F006C4A99639446D9661D
:100AE0005C66126A6A4858379F651F00024060467C
:100AF0005C379C661B645B64DF651F66DC640262B6
:100B000062B672B6AC20634A1250403880469044B8
:100B100047463030175060485450D0675F480C311A
:100B2000505050460C3155503431555004395450C2
:100B3000AF350439545056531239594E50540A396E
:100B400056505E69083953500431565011009031A7
:100B5000316116005961B821B83656501100BC26D3
:100B6000BC3191510436915199690C3E9451886879
:100B7000002846D0494651551B6899680029FBD189
:100B800094209031535059681150464A0A605A6077
:100B900062B603218C460C3101240022402001263C
:100BA0008846414B4008062A1ED0A4000132064266
:100BB000F8D035009540674659684008A94355006C
:100BC000AF40596099689500B9439960D968B943B5
:100BD000D9601968B9434746AF4021431960196A83
:100BE000B9431962062AE0D140252F4C63696B4056
:100BF000636172B6962108204900FFF769FC62B66E
:100C0000F4E7484620240855180000688468002C42
:100C1000FBD1446808604C60216041602148012498
:100C20009861B023D454FFF7B7FAB1E7001002403F
:100C3000FFFFA1FFFFFFBFFF007000400004002086
:100C4000941200081C0600202C060020C102000897
:100C500000440040006CDC020058014000040040E9
:100C60007FBB0000FFFF0000600400204006002062
:100C7000F805002000200020000600209102000856
:100C8000D404002011030008FC11000800ED00E06E
:100C9000FFFF00FF2005002041040008B901000803
:100CA000F4110008B0050020000400480000000016
:100CB000EFF30983203383F3098862B67047C04697
:100CC00070B572B60F4B9C6925006062A06A28352A
:100CD000A84206D00368A362FFF762FBA06AA8429D
:100CE000F8D12223E35C002B07D12133E35C9B077F
:100CF00003D16269236913615A610F20FFF7D0FBAA
:100D000070BDC0466004002000000000000000002C
:100D10000D4A70B510689169036820245A60136009
:100D200090610122002502558A680D5500E01B687C
:100D30009C68A242FBD35A680B604A6011605960FC
:100D4000FFF72AFA70BDC0466004002000000000D2
:100D5000BC234D4ADB03916A70B519439162916AD5
:100D60004A48012401409162916A516948480B4305
:100D70005361902153690023C9054B608860454841
:100D80008026C8604448454D48618820400108627B
:100D900043484B6208604349434864424B608C605F
:100DA000CD6048610B624B620E604049404E4B6023
:100DB0008C60CE6048610B624B620B603D494B60BA
:100DC0008C60CD603C4C48610B624B620B603B49D0
:100DD0004B608B60CC6048610B624B620B60012101
:100DE00013680B431360022311680B42FCD00321EC
:100DF00053688B4353600C22234B10005968084002
:100E00000A42FAD1F92219680A401A60A0225860F1
:100E10001968D2020A431A6080221B4B9202196899
:100E20001142FCD001215A6A0A435A620222164B2F
:100E3000596A0A42FCD0A02100228903DA62596073
:100E40001A638022196852040A431A6080230E4AEA
:100E50009B0411681942FCD01122194B1A60103AF8
:100E600019680A42FCD00221074B5A680A435A60AB
:100E70000A315A680A40082AFBD101219A690A43BB
:100E80009A619B6970BDC04600100240FFFFA1FF40
:100E90005FF7FFFF05515565DFFF000055555555BC
:100EA000A004002800040048FFFF000000080048DC
:100EB00055555501000C0048505555550014004833
:100EC00000200240000000000000000000000000C0
:100ED000F8B52E4DCE462B69EA6847461A40FF23E7
:100EE0001340DB4380B5F0462B61930708D443469B
:100EF0000F3301D0FFF7ECF90CBC90469946F8BDD2
:100F000072B6234E6A6AF369318D92B2541A9868A8
:100F1000A4B2A04221D837001C370022914608E035
:100F200062B61869884772B6F369986884420DD32F
:100F3000318D0918241A48461A6831855760D968D6
:100F4000F261D860BA42EBD1E860E9E76A6A318DB4
:100F500092B2541AA4B28442DFD231001C318B42C7
:100F60000DD0996832850C1B9C6080235B029C42EB
:100F700009D2022C05D3054B121992B25A6362B6FC
:100F8000B5E70224F7E7034CF5E7C046000400404C
:100F900060040020FFFF00000000000000000000CF
:100FA000F8B54E46DE46574645465F4CE0B5666DA1
:100FB000F1463768F56935622B0700D092E0AB0641
:100FC0003ED55C239A46503B9846A0441EE0236AD7
:100FD000626A934229D06269013262615A1C2262BC
:100FE0001D70236AE269934201D3A3692362E0681A
:100FF000404507D042460368E3605A6000234362DD
:10100000FFF7CEF962B6F569AB0619D572B653464D
:10101000B58CE35C1D406369002BD8D10420FFF739
:10102000D7F9236A626A9342D5D16269002AD2D085
:101030008020C000FFF7CCF962B6F569AB06E5D4B5
:1010400080233B4236D02B4234D0302398460023B5
:101050009B4680339A46A0441CE0A26B0132A263F7
:101060005A1CA2641D78236C9A4201D3E36BA364DB
:10107000206B404507D04246036823635A605B46B5
:101080004362FFF78DF9ADB2358562B65346F56917
:101090002B420FD072B6A36C626C9A42DDD1A26B68
:1010A000002ADAD00820FFF793F980233A009A4308
:1010B000326062B6402398463B420AD14B460F331A
:1010C00001D0FFF705F93CBC90469946A246AB46D5
:1010D000F8BD2B42F2D072B6636CA26C934219D069
:1010E00062B6EBE70823180028402B4200D080208E
:1010F000EB0701D520231843AB0701D54023184344
:101100006B0702D580235B00184372B6FFF760F9C6
:1011100062B654E7A36B002BE2D01020FFF758F91A
:1011200043469F433760DBE70004002000000000D7
:10113000734610B50F3301D0FFF7CAF810BDC04693
:1011400010B5FFF7F5FF10BD000000000000000023
:1011500080229446F0B50025104E114C1149124BD7
:101160001248B44499420DD91A0080C880C29142F5
:10117000FBD80139C91A8908013189005B189C42E2
:1011800002D920C39C42FCD81036664504D0306892
:101190007368B168F468E5E7F0BDC0461412000852
:1011A0003C0600203C0600203C060020BC12000843
:1011B000FEE7C04600000000000000000000000044
:1011C0007047C04600000000000000000000000062
:0411D0007047C0465E
:1011D400840300086203000862030008880300080F
:1011E4005A03000852030008620300085A03000867
:1011F40069646C65000000006D61696E0016413021
:10120400040244080C1014181C20212200000000C1
:10121400BC1200083C0600203C0600203C060020CE
:10122400BC120008000000000000000000000000E4
:10123400BC120008000000000000000000000000D4
:10124400BC120008000000000000000000000000C4
:10125400BC120008000000000000000000000000B4
:10126400BC120008000000000000000000000000A4
:10127400BC12000800000000000000000000000094
:10128400BC12000800000000000000000000000084
:101294000000000001080008E1080008B106000889
:1012A40021070008A106000811070008F10700083B
:0812B400D108000891040008B4
:04000005080001915D
:00000001FF
